:03000000020BBD33
:0C0BBD00787FE4F6D8FD75815B020C0423
:100B0000202063726F737320776F72642000313D11
:100B1000256425643A2564256400323D25642564F6
:100B20003A2564256400202053454C454354202039
:100B30004D4F44450020413D555020202020423D4E
:100B4000444F574E0020202054494D4520534554D2
:100B5000002020202030303A303000202020496E04
:100B6000736572742054696D6500256425643A25A7
:100B7000642564002053454C45435420504C415952
:100B800045523A0025640020202020205354415231
:100B900054002020202020456E642047616D652090
:100BA0000020202020202020202020202020202065
:0D0BB000200077116D5D1B5E7E157F5F08D4
:100C49000226000002280000022A0000022C0000EF
:100C59000256001E0254001E084C0044004500477D
:100C69000048084400000000000000000222FFFFC5
:0C0C790002240000022E0002025A0001BA
:100C8600440FF5A0C2A2D2A37F02120C97C2A37F83
:010C9600025B
:100C9700E4FDFC0DBD00010CBC01F8BDF4F51FD34C
:070CA700EF6480948050E926
:010CAE002223
:0D000600AE07EE120C86EEC454F0020C861C
:100D4600AE07EE440FF5A0D2A2120C8CEEC454F0FE
:090D5600440FF5A0D2A2020C8C9E
:100D28007F331200067F321200067F281200067FEA
:0E0D38000F1200067F061200067F0102000661
:0E0D7500120D89E55925E0244CF8E608E6FF4A
:060D830043078002000698
:100D8900E4FB74302BF8E6FF120D460B74302BF898
:030D9900E670EF12
:010D9C002234
:1009E800E4FF120D83750BFF750C0B750D007B0072
:1009F8007A0079301205BD120D897F40120D83757A
:100A08000BFF750C0B750D0EAE40AF417C007D3CA5
:100A18001208CFAA06AB077C007D0A1208CF7C001B
:100A28007D0A1208CF8C0E8D0F7C007D0AAF03AEB5
:100A3800021208CF8C108D11AE40AF417C007D3C76
:100A48001208CFAA04AB057E007F0A7D0A7C00AF9E
:100A580003AE021208CF8E128F137E007F0A7D0A22
:100A68007C00AF03AE021208CF8C148D157B007A80
:100A78000079301205BD120D897F49120D83750B5F
:100A8800FF750C0B750D1AAE42AF437C007D3C120E
:100A980008CFAA06AB077C007D0A1208CF7C007D30
:100AA8000A1208CF8C0E8D0F7C007D0AAF03AE02B0
:100AB8001208CF8C108D11AE42AF437C007D3C12E2
:100AC80008CFAA04AB057E007F0A7D0A7C00AF032D
:100AD800AE021208CF8E128F137E007F0A7D0A7C29
:100AE80000AF03AE021208CF8C148D157B007A007C
:080AF80079301205BD020D89E1
:100D5F00EF60127E017D010DBD72FC0EEED394FA91
:050D6F0040F31F80EBC2
:010D7400225C
:03001300020CAF2D
:100CAF00C0E0C2AAE55B6401455A600C852242850B
:100CBF002343854022854123755A00755B01C294F9
:090CCF00C295D2AAC28BD0E0321A
:03000300020CD814
:100CD800C0E0C2A8E55B6402455A600C85224085E5
:100CE8002341854222854323755A00755B02C294CD
:090CF800C295D2A8C289D0E032F5
:10001600120D2875985075CBFF75CAC4D299D2A90E
:10002600D288D2A8D28AD2AAD2AF852240852341CD
:10003600852242852343120D28E4FF120D83750B9A
:10004600FF750C0B750D267B007A0079301205BD05
:10005600120D897F40120D83750BFF750C0B750D04
:10006600357B007A0079301205BD120D897F0512A5
:100076000D5F209308752E00752F0280092092F2DD
:10008600752E00752F01120D28E4FF120D83750BD6
:10009600FF750C0B750D457B007A0079301205BD96
:1000A600120D897F40120D83750BFF750C0B750DB4
:1000B600517B007A0079301205BD120D897F4412FA
:1000C6000D83E4F558F559309003020194AE44AF20
:1000D600457C007D0A1208BDE5472FFFE5463EFE3A
:1000E6007D3C1208BDAA06AB07AE48AF497D0A1291
:1000F60008BDEB2FFFEA3ECF254BF523EF354AF53A
:1001060022E523F47003E522F46009E52345226025
:10011600030202C07F40120D83750BFF750C0B7531
:100126000D5B7B007A0079301205BD120D897F0ABE
:10013600120D5F120D28E4FF120D83750BFF750C6F
:100146000B750D457B007A0079301205BD120D89BD
:100156007F44120D83750BFF750C0B750D6A854474
:100166000E85450F8546108547118548128549132A
:10017600854A14854B157B007A0079301205BD122D
:100186000D897F44120D83D2907F04120D5F20915A
:1001960026D3E5599402E558648094804007E4F537
:1001A60058F55980080559E55970020558120D7819
:1001B600D2917F04120D5F20926C7F44120D83ABA7
:1001C60059EB25E02444F80806E618700106FF8678
:1001D600067C007D0A1208CFEB25E02444F8A6042D
:1001E60008A605AE48AF497C007D071208CF8C48AB
:1001F6008D49750BFF750C0B750D6A85440E85458B
:100206000F854610854711854812854913854A147E
:10021600854B157B007A0079301205BD120D75D21B
:10022600927F04120D5F3093030200CD7F44120DBE
:1002360083AB59EB25E02444F808E616187001163E
:1002460014FF86067C007D0A1208CFEB25E02444C5
:10025600F8A60408A605AE48AF497C007D0712083B
:10026600CF8C488D49EB25E02444F8E6FE08E6C32A
:10027600EE64809480500CE55925E02444F876001D
:10028600087609750BFF750C0B750D6A85440E858E
:10029600450F854610854711854812854913854ABD
:1002A60014854B157B007A0079301205BD120D7549
:1002B600D2937F04120D5F0200CD120D28E52F6444
:1002C60001452E7019E52324FFF525E52234FFF5B7
:1002D60024E4F540F541F542F543F522F523E52FF3
:1002E6006402452E7010F524F525852240852341AC
:1002F600852242852343C2B7D2B6E4FF120D837529
:100306000BFF750C0B750D747B007A0079301205A6
:10031600BD120D897F0F120D83750BFF750C0B75C2
:100326000D84855A0E855B0F7B007A0079301205A5
:10033600BD120D897F40120D83750BFF750C0B7571
:100346000D877B007A0079301205BD120D897F0F6B
:10035600120D8320932AD2B7C2B6755A00755B0276
:10036600750BFF750C0B750D84855A0E855B0F7B1F
:10037600007A0079301205BD120D897F0F120D83A8
:1003860020922AC2B7D2B6755A00755B01750BFF6B
:10039600750C0B750D84855A0E855B0F7B007A00F4
:1003A60079301205BD120D897F0F120D832090A39F
:1003B600120D28E52F6401452E600302045C7F0AB6
:1003C600120D5F0523E52370020522D3E54195252D
:1003D600E5246480F8E5406480984018D3E54395A9
:1003E60025E5246480F8E5426480984007D2AAD2C5
:1003F600A8020505E55B6401455A7027D3E54195DA
:1004060025E5246480F8E540648098400E85422204
:10041600854323755A00755B028035852240852306
:1004260041802DE55B6402455A7025D3E543952549
:10043600E5246480F8E542648098400E8540228574
:100446004123755A00755B01800685224285234348
:100456001209E80203C4E52F6402452E6003020573
:10046600057F0A120D5FE523152370021522D3E5D9
:10047600419525E5246480F8E5406480985016E5AA
:10048600439525E5246480F8E5426480985006D2B9
:10049600AAD2A8806AE55B6401455A702BD3E54170
:1004A6009525E5246480F8E54064809850128542DD
:1004B60022854323755A00755B02C2B7D2B68039CE
:1004C6008522408523418031E55B6402455A7029C7
:1004D600D3E5439525E5246480F8E5426480985089
:1004E60012854022854123755A00755B01D2B7C239
:1004F600B680068522428523431209E8020467E492
:10050600FF120D83750BFF750C0B750D927B007A30
:100516000079301205BD120D89E4FF120D8320917A
:10052600FDC290120D28E4FF120D83750BFF750CAA
:100536000B750DA17B007A0079301205BD120D896D
:100546007F40120D83750BFF750C0B750DA17B009B
:0B0556007A0079301205BD120D8922D9
:100BC900020016E493A3F8E493A34003F68001F22C
:100BD90008DFF48029E493A3F85407240CC8C3332D
:100BE900C4540F4420C8834004F456800146F6DFFC
:100BF900E4800B0102040810204080900C49E47E37
:100C0900019360BCA3FF543F30E509541FFEE493F0
:100C1900A360010ECF54C025E060A840B8E493A3B7
:100C2900FAE493A3F8E493A3C8C582C8CAC583CAE2
:100C3900F0A3C8C582C8CAC583CADFE9DEE780BE9A
:010C8500006E
:1008BD00EF8DF0A4A8F0CF8CF0A428CE8DF0A42E4F
:0208CD00FE2209
:1008CF00C2D5EC30E709B2D5E4C39DFDE49CFCEE44
:1008DF0030E715B2D5E4C39FFFE49EFE12095DC356
:1008EF00E49DFDE49CFC800312095D30D507C3E451
:0608FF009FFFE49EFE22B3
:10056100E517240BF8E60517227808300702780B07
:10057100E475F0011209B20209052000EB7F2ED2C9
:10058100008018EF540F2490D43440D4FF30040B72
:10059100EF24BFB41A0050032461FFE5186002156F
:1005A10018051BE51B7002051A30070D7808E47564
:1005B100F0011209B2EF02094B020D017403D207D7
:1005C1008003E4C207F5178B088A09890AE4F51844
:1005D100F51AF51BE51860077F2012059C80F5755B
:1005E10019FFC201C200C202C203C205C206C2088B
:1005F10012056AFF700D3007057F001205ADAF1BB4
:10060100AE1A22B4255FC2D5C20412056AFF24D0F6
:10061100B40A00501A75F00A781830D50508B6FFEB
:100621000106C6A426F620D5047002D20380D9247F
:10063100CFB41A00EF5004C2E5D2040207ADD201D3
:1006410080C6D20080C0D20280BCD2D580BAD20589
:1006510080B47F2012059C2002077401B518004068
:10066100F1120561FF12059C0205D5D208D2068060
:1006710095120561FB120561FA120561F94A4B7089
:1006810006797E7A087BFF20022EE518602A7E001B
:100691008E8275830012091E60060EEE651970F0D8
:1006A100C2D5EBC0E0EAC0E0E9C0E0EE1207F4D049
:1006B100E0F9D0E0FAD0E0FB120905FF60AAEBC037
:1006C100E0EAC0E0E9C0E012059CD0E02401F9D0E5
:1006D100E03400FAD0E0FBE5190460DCD519D980DB
:1006E100877BFF7A0779F0D202809C7910800279AA
:1006F10008C206C2088008D2D5790A8004790AC2E4
:10070100D5E519047002F519E4FAFDFEFF12056141
:10071100FC7B08200113120561FD7B1030000A12D9
:100721000561FE120561FF7B20EC3382D592D55025
:1007310013C3E43000069FFFE49EFEE42001039D05
:10074100FDE49CFCE4CBF8C201EC700CCFCECDCC27
:10075100E824F8F870F38017C3EF33FFEE33FEEDB2
:1007610033FDEC33FCEB33FB994002FB0FD8E9EB93
:10077100300105F8D0E0C448B201C0E00AEC4D4EAA
:100781004F78207B0070C2EAB5190040BCC0E0126E
:1007910007F6D0F0D0E0200104C4C0E0C4B201C02B
:1007A100F0120585D0F0D5F0EB0205D51209C2068D
:1007B100725306EC5806434C063F4206F04F06F8CA
:1007C1004406F84906584306FE5506E24606E24548
:1007D10006E247089E5006472D064B2E066E2B0655
:1007E1004F23066C20088C2A060748000006663F46
:1007F1003F3F00790AA2D5200314300509B9100240
:100801000404B9080104A2D5200602500104200203
:05081100689202B51819
:10081600005034C0E07F203003197F30A2027206F8
:100826007205500F12084DC202C206C205C2087FE9
:1008360030800F300503E9C0E012059C300503D077
:10084600E0F9D0E0B518CC3005177F30B9100C129E
:10085600059C7F583004077F788003B9080312058A
:100866009C3002057F2D02059C7F202008F87F2BF7
:100876002006F322920280CF286E756C6C29002D1B
:1008860050434958D2011205613001F8C201781867
:1008960030D50108F60206071205612403B40500E7
:1008A6004001E49008859312058D743A12058DD2A5
:0708B600037518040206ECB3
:10090500BB010689828A83E0225002E722BBFE02F0
:09091500E32289828A83E4932223
:10091E00BB010CE58229F582E5833AF583E022508E
:10092E0006E92582F8E622BBFE06E92582F8E222D8
:0D093E00E58229F582E5833AF583E49322F2
:10094B00BB010689828A83F0225002F722BBFE018B
:02095B00F32285
:10095D00BC000BBE0029EF8DF084FFADF022E4CC7E
:10096D00F875F008EF2FFFEE33FEEC33FCEE9DEC47
:10097D00984005FCEE9DFE0FD5F0E9E4CEFD22ED8D
:10098D00F8F5F0EE8420D21CFEADF075F008EF2FD7
:10099D00FFED33FD4007985006D5F0F222C398FDC8
:0509AD000FD5F0EA2265
:1009B200FAE6FB0808E6F925F0F618E6CA3AF62246
:1009C200D083D082F8E4937012740193700DA3A3C4
:1009D20093F8740193F5828883E4737402936860D8
:0609E200EFA3A3A380DFD8
:100D0100EFB40A07740D120D0C740A309811A899EA
:100D1100B8130CC2983098FDA899C298B811F63052
:070D210099FDC299F599222A
:00000001FF
